{
  "contractName": "VotingSystem",
  "abi": [
    {
      "inputs": [],
      "stateMutability": "nonpayable",
      "type": "constructor"
    },
    {
      "anonymous": false,
      "inputs": [
        {
          "indexed": false,
          "internalType": "uint256",
          "name": "id",
          "type": "uint256"
        },
        {
          "indexed": false,
          "internalType": "string",
          "name": "firstName",
          "type": "string"
        },
        {
          "indexed": false,
          "internalType": "string",
          "name": "lastName",
          "type": "string"
        },
        {
          "indexed": false,
          "internalType": "address",
          "name": "addressCandidate",
          "type": "address"
        },
        {
          "indexed": false,
          "internalType": "string",
          "name": "certificationCode",
          "type": "string"
        },
        {
          "indexed": false,
          "internalType": "string",
          "name": "politicalParty",
          "type": "string"
        },
        {
          "indexed": false,
          "internalType": "uint256",
          "name": "age",
          "type": "uint256"
        }
      ],
      "name": "CandidateAdded",
      "type": "event"
    },
    {
      "anonymous": false,
      "inputs": [
        {
          "indexed": false,
          "internalType": "enum VotingSystem.ElectionPhase",
          "name": "phase",
          "type": "uint8"
        }
      ],
      "name": "ElectionPhaseChanged",
      "type": "event"
    },
    {
      "anonymous": false,
      "inputs": [
        {
          "indexed": false,
          "internalType": "uint256",
          "name": "candidateId",
          "type": "uint256"
        }
      ],
      "name": "VoteCast",
      "type": "event"
    },
    {
      "anonymous": false,
      "inputs": [
        {
          "indexed": false,
          "internalType": "uint256",
          "name": "id",
          "type": "uint256"
        },
        {
          "indexed": false,
          "internalType": "string",
          "name": "firstName",
          "type": "string"
        },
        {
          "indexed": false,
          "internalType": "string",
          "name": "lastName",
          "type": "string"
        },
        {
          "indexed": false,
          "internalType": "address",
          "name": "addressVoter",
          "type": "address"
        },
        {
          "indexed": false,
          "internalType": "string",
          "name": "idCardNumber",
          "type": "string"
        },
        {
          "indexed": false,
          "internalType": "uint256",
          "name": "age",
          "type": "uint256"
        }
      ],
      "name": "VoterAdded",
      "type": "event"
    },
    {
      "anonymous": false,
      "inputs": [
        {
          "indexed": false,
          "internalType": "uint256",
          "name": "winnerId",
          "type": "uint256"
        },
        {
          "indexed": false,
          "internalType": "string",
          "name": "firstName",
          "type": "string"
        },
        {
          "indexed": false,
          "internalType": "string",
          "name": "lastName",
          "type": "string"
        },
        {
          "indexed": false,
          "internalType": "uint256",
          "name": "voteCount",
          "type": "uint256"
        }
      ],
      "name": "WinnerDeclared",
      "type": "event"
    },
    {
      "inputs": [],
      "name": "admin",
      "outputs": [
        {
          "internalType": "address",
          "name": "",
          "type": "address"
        }
      ],
      "stateMutability": "view",
      "type": "function",
      "constant": true
    },
    {
      "inputs": [],
      "name": "candidateCount",
      "outputs": [
        {
          "internalType": "uint256",
          "name": "",
          "type": "uint256"
        }
      ],
      "stateMutability": "view",
      "type": "function",
      "constant": true
    },
    {
      "inputs": [
        {
          "internalType": "uint256",
          "name": "",
          "type": "uint256"
        }
      ],
      "name": "candidates",
      "outputs": [
        {
          "internalType": "uint256",
          "name": "id",
          "type": "uint256"
        },
        {
          "internalType": "string",
          "name": "firstName",
          "type": "string"
        },
        {
          "internalType": "string",
          "name": "lastName",
          "type": "string"
        },
        {
          "internalType": "address",
          "name": "addressCandidate",
          "type": "address"
        },
        {
          "internalType": "string",
          "name": "certificationCode",
          "type": "string"
        },
        {
          "internalType": "string",
          "name": "politicalParty",
          "type": "string"
        },
        {
          "internalType": "uint256",
          "name": "age",
          "type": "uint256"
        },
        {
          "internalType": "uint256",
          "name": "voteCount",
          "type": "uint256"
        }
      ],
      "stateMutability": "view",
      "type": "function",
      "constant": true
    },
    {
      "inputs": [],
      "name": "currentPhase",
      "outputs": [
        {
          "internalType": "enum VotingSystem.ElectionPhase",
          "name": "",
          "type": "uint8"
        }
      ],
      "stateMutability": "view",
      "type": "function",
      "constant": true
    },
    {
      "inputs": [],
      "name": "totalVotes",
      "outputs": [
        {
          "internalType": "uint256",
          "name": "",
          "type": "uint256"
        }
      ],
      "stateMutability": "view",
      "type": "function",
      "constant": true
    },
    {
      "inputs": [
        {
          "internalType": "uint256",
          "name": "",
          "type": "uint256"
        }
      ],
      "name": "voterAddresses",
      "outputs": [
        {
          "internalType": "address",
          "name": "",
          "type": "address"
        }
      ],
      "stateMutability": "view",
      "type": "function",
      "constant": true
    },
    {
      "inputs": [],
      "name": "voterCount",
      "outputs": [
        {
          "internalType": "uint256",
          "name": "",
          "type": "uint256"
        }
      ],
      "stateMutability": "view",
      "type": "function",
      "constant": true
    },
    {
      "inputs": [
        {
          "internalType": "address",
          "name": "",
          "type": "address"
        }
      ],
      "name": "voters",
      "outputs": [
        {
          "internalType": "uint256",
          "name": "id",
          "type": "uint256"
        },
        {
          "internalType": "string",
          "name": "firstName",
          "type": "string"
        },
        {
          "internalType": "string",
          "name": "lastName",
          "type": "string"
        },
        {
          "internalType": "address",
          "name": "addressVoter",
          "type": "address"
        },
        {
          "internalType": "string",
          "name": "idCardNumber",
          "type": "string"
        },
        {
          "internalType": "uint256",
          "name": "age",
          "type": "uint256"
        },
        {
          "internalType": "bool",
          "name": "hasVoted",
          "type": "bool"
        }
      ],
      "stateMutability": "view",
      "type": "function",
      "constant": true
    },
    {
      "inputs": [],
      "name": "winnerCandidateId",
      "outputs": [
        {
          "internalType": "uint256",
          "name": "",
          "type": "uint256"
        }
      ],
      "stateMutability": "view",
      "type": "function",
      "constant": true
    },
    {
      "inputs": [],
      "name": "startElection",
      "outputs": [],
      "stateMutability": "nonpayable",
      "type": "function"
    },
    {
      "inputs": [],
      "name": "nextPhase",
      "outputs": [],
      "stateMutability": "nonpayable",
      "type": "function"
    },
    {
      "inputs": [
        {
          "internalType": "address",
          "name": "_voterAddress",
          "type": "address"
        },
        {
          "internalType": "string",
          "name": "_firstName",
          "type": "string"
        },
        {
          "internalType": "string",
          "name": "_lastName",
          "type": "string"
        },
        {
          "internalType": "string",
          "name": "_idCardNumber",
          "type": "string"
        },
        {
          "internalType": "uint256",
          "name": "_age",
          "type": "uint256"
        }
      ],
      "name": "addVoter",
      "outputs": [],
      "stateMutability": "nonpayable",
      "type": "function"
    },
    {
      "inputs": [
        {
          "internalType": "address[]",
          "name": "_voterAddresses",
          "type": "address[]"
        },
        {
          "internalType": "string[]",
          "name": "_firstNames",
          "type": "string[]"
        },
        {
          "internalType": "string[]",
          "name": "_lastNames",
          "type": "string[]"
        },
        {
          "internalType": "string[]",
          "name": "_idCardNumbers",
          "type": "string[]"
        },
        {
          "internalType": "uint256[]",
          "name": "_ages",
          "type": "uint256[]"
        }
      ],
      "name": "addVotersBulk",
      "outputs": [],
      "stateMutability": "nonpayable",
      "type": "function"
    },
    {
      "inputs": [
        {
          "internalType": "string",
          "name": "_firstName",
          "type": "string"
        },
        {
          "internalType": "string",
          "name": "_lastName",
          "type": "string"
        },
        {
          "internalType": "address",
          "name": "_addressCandidate",
          "type": "address"
        },
        {
          "internalType": "string",
          "name": "_certificationCode",
          "type": "string"
        },
        {
          "internalType": "string",
          "name": "_politicalParty",
          "type": "string"
        },
        {
          "internalType": "uint256",
          "name": "_age",
          "type": "uint256"
        }
      ],
      "name": "addCandidate",
      "outputs": [],
      "stateMutability": "nonpayable",
      "type": "function"
    },
    {
      "inputs": [
        {
          "internalType": "string[]",
          "name": "_firstNames",
          "type": "string[]"
        },
        {
          "internalType": "string[]",
          "name": "_lastNames",
          "type": "string[]"
        },
        {
          "internalType": "address[]",
          "name": "_addressCandidates",
          "type": "address[]"
        },
        {
          "internalType": "string[]",
          "name": "_certificationCodes",
          "type": "string[]"
        },
        {
          "internalType": "string[]",
          "name": "_politicalParties",
          "type": "string[]"
        },
        {
          "internalType": "uint256[]",
          "name": "_ages",
          "type": "uint256[]"
        }
      ],
      "name": "addCandidatesBulk",
      "outputs": [],
      "stateMutability": "nonpayable",
      "type": "function"
    },
    {
      "inputs": [
        {
          "internalType": "uint256",
          "name": "_candidateId",
          "type": "uint256"
        }
      ],
      "name": "vote",
      "outputs": [],
      "stateMutability": "nonpayable",
      "type": "function"
    },
    {
      "inputs": [
        {
          "internalType": "uint256",
          "name": "_id",
          "type": "uint256"
        }
      ],
      "name": "getCandidate",
      "outputs": [
        {
          "components": [
            {
              "internalType": "uint256",
              "name": "id",
              "type": "uint256"
            },
            {
              "internalType": "string",
              "name": "firstName",
              "type": "string"
            },
            {
              "internalType": "string",
              "name": "lastName",
              "type": "string"
            },
            {
              "internalType": "address",
              "name": "addressCandidate",
              "type": "address"
            },
            {
              "internalType": "string",
              "name": "certificationCode",
              "type": "string"
            },
            {
              "internalType": "string",
              "name": "politicalParty",
              "type": "string"
            },
            {
              "internalType": "uint256",
              "name": "age",
              "type": "uint256"
            },
            {
              "internalType": "uint256",
              "name": "voteCount",
              "type": "uint256"
            }
          ],
          "internalType": "struct VotingSystem.Candidate",
          "name": "",
          "type": "tuple"
        }
      ],
      "stateMutability": "view",
      "type": "function",
      "constant": true
    },
    {
      "inputs": [
        {
          "internalType": "address",
          "name": "_voterAddress",
          "type": "address"
        }
      ],
      "name": "getVoter",
      "outputs": [
        {
          "components": [
            {
              "internalType": "uint256",
              "name": "id",
              "type": "uint256"
            },
            {
              "internalType": "string",
              "name": "firstName",
              "type": "string"
            },
            {
              "internalType": "string",
              "name": "lastName",
              "type": "string"
            },
            {
              "internalType": "address",
              "name": "addressVoter",
              "type": "address"
            },
            {
              "internalType": "string",
              "name": "idCardNumber",
              "type": "string"
            },
            {
              "internalType": "uint256",
              "name": "age",
              "type": "uint256"
            },
            {
              "internalType": "bool",
              "name": "hasVoted",
              "type": "bool"
            }
          ],
          "internalType": "struct VotingSystem.Voter",
          "name": "",
          "type": "tuple"
        }
      ],
      "stateMutability": "view",
      "type": "function",
      "constant": true
    },
    {
      "inputs": [],
      "name": "getResults",
      "outputs": [
        {
          "components": [
            {
              "internalType": "uint256",
              "name": "id",
              "type": "uint256"
            },
            {
              "internalType": "string",
              "name": "firstName",
              "type": "string"
            },
            {
              "internalType": "string",
              "name": "lastName",
              "type": "string"
            },
            {
              "internalType": "address",
              "name": "addressCandidate",
              "type": "address"
            },
            {
              "internalType": "string",
              "name": "certificationCode",
              "type": "string"
            },
            {
              "internalType": "string",
              "name": "politicalParty",
              "type": "string"
            },
            {
              "internalType": "uint256",
              "name": "age",
              "type": "uint256"
            },
            {
              "internalType": "uint256",
              "name": "voteCount",
              "type": "uint256"
            }
          ],
          "internalType": "struct VotingSystem.Candidate[]",
          "name": "",
          "type": "tuple[]"
        }
      ],
      "stateMutability": "view",
      "type": "function",
      "constant": true
    },
    {
      "inputs": [],
      "name": "getVoterAddresses",
      "outputs": [
        {
          "internalType": "address[]",
          "name": "",
          "type": "address[]"
        }
      ],
      "stateMutability": "view",
      "type": "function",
      "constant": true
    },
    {
      "inputs": [],
      "name": "resetElection",
      "outputs": [],
      "stateMutability": "nonpayable",
      "type": "function"
    }
  ],
  "bytecode": "0x608060405234801561001057600080fd5b50600160008190555033600860016101000a81548173ffffffffffffffffffffffffffffffffffffffff021916908373ffffffffffffffffffffffffffffffffffffffff160217905550600160058190555060016006819055506000600860006101000a81548160ff021916908360048111156100b6577f4e487b7100000000000000000000000000000000000000000000000000000000600052602160045260246000fd5b02179055506151b480620000cb6000396000f3fe608060405234801561001057600080fd5b50600436106101375760003560e01c806356f58f19116100b8578063d4f50f981161007c578063d4f50f9814610313578063dd0e237314610343578063e8f3052314610373578063ea6d9c4a1461037d578063ee1713af14610399578063f851a440146103b557610137565b806356f58f191461027d57806362d73eb814610299578063a3ec138d146102a3578063a9a981a3146102d9578063bdbe8b8e146102f757610137565b80633477ee2e116100ff5780633477ee2e146101d057806335b8e820146102075780633eadb6db1461023757806342169e48146102415780634717f97c1461025f57610137565b80630121b93f1461013c578063055ad42e146101585780630a16e30b146101765780630d15fd77146101945780631f8d9fe3146101b2575b600080fd5b610156600480360381019061015191906140ee565b6103d3565b005b6101606106e9565b60405161016d91906148f6565b60405180910390f35b61017e6106fc565b60405161018b91906148b2565b60405180910390f35b61019c61078a565b6040516101a99190614a95565b60405180910390f35b6101ba610790565b6040516101c79190614a95565b60405180910390f35b6101ea60048036038101906101e591906140ee565b610796565b6040516101fe989796959493929190614b3b565b60405180910390f35b610221600480360381019061021c91906140ee565b610a1e565b60405161022e9190614a51565b60405180910390f35b61023f610d58565b005b610249611192565b6040516102569190614a95565b60405180910390f35b610267611198565b60405161027491906148d4565b60405180910390f35b61029760048036038101906102929190614005565b611641565b005b6102a161193e565b005b6102bd60048036038101906102b89190613d15565b611b2b565b6040516102d09796959493929190614c4b565b60405180910390f35b6102e1611d32565b6040516102ee9190614a95565b60405180910390f35b610311600480360381019061030c9190613eec565b611d38565b005b61032d60048036038101906103289190613d15565b6123cd565b60405161033a9190614a73565b60405180910390f35b61035d600480360381019061035891906140ee565b6126e7565b60405161036a9190614897565b60405180910390f35b61037b612726565b005b61039760048036038101906103929190613d3e565b612b38565b005b6103b360048036038101906103ae9190613dfd565b612f38565b005b6103bd613703565b6040516103ca9190614897565b60405180910390f35b6000600260003373ffffffffffffffffffffffffffffffffffffffff1673ffffffffffffffffffffffffffffffffffffffff168152602001908152602001600020600001541415610459576040517f08c379a0000000000000000000000000000000000000000000000000000000008152600401610450906149d1565b60405180910390fd5b6003806004811115610494577f4e487b7100000000000000000000000000000000000000000000000000000000600052602160045260246000fd5b600860009054906101000a900460ff1660048111156104dc577f4e487b7100000000000000000000000000000000000000000000000000000000600052602160045260246000fd5b1461051c576040517f08c379a000000000000000000000000000000000000000000000000000000000815260040161051390614971565b60405180910390fd5b610524613729565b600260003373ffffffffffffffffffffffffffffffffffffffff1673ffffffffffffffffffffffffffffffffffffffff16815260200190815260200160002060060160009054906101000a900460ff16156105b4576040517f08c379a00000000000000000000000000000000000000000000000000000000081526004016105ab90614911565b60405180910390fd5b6000821180156105c5575060055482105b610604576040517f08c379a00000000000000000000000000000000000000000000000000000000081526004016105fb90614a11565b60405180910390fd5b6001600260003373ffffffffffffffffffffffffffffffffffffffff1673ffffffffffffffffffffffffffffffffffffffff16815260200190815260200160002060060160006101000a81548160ff021916908315150217905550600180600084815260200190815260200160002060070160008282546106859190614ebb565b9250508190555060016004600082825461069f9190614ebb565b925050819055507f9593d9bd30eff4872ec3bab10360ad82eaac80651801e68f47f0674c38415c3d826040516106d59190614a95565b60405180910390a16106e5613779565b5050565b600860009054906101000a900460ff1681565b6060600380548060200260200160405190810160405280929190818152602001828054801561078057602002820191906000526020600020905b8160009054906101000a900473ffffffffffffffffffffffffffffffffffffffff1673ffffffffffffffffffffffffffffffffffffffff1681526020019060010190808311610736575b5050505050905090565b60045481565b60075481565b60016020528060005260406000206000915090508060000154908060010180546107bf90614ff4565b80601f01602080910402602001604051908101604052809291908181526020018280546107eb90614ff4565b80156108385780601f1061080d57610100808354040283529160200191610838565b820191906000526020600020905b81548152906001019060200180831161081b57829003601f168201915b50505050509080600201805461084d90614ff4565b80601f016020809104026020016040519081016040528092919081815260200182805461087990614ff4565b80156108c65780601f1061089b576101008083540402835291602001916108c6565b820191906000526020600020905b8154815290600101906020018083116108a957829003601f168201915b5050505050908060030160009054906101000a900473ffffffffffffffffffffffffffffffffffffffff169080600401805461090190614ff4565b80601f016020809104026020016040519081016040528092919081815260200182805461092d90614ff4565b801561097a5780601f1061094f5761010080835404028352916020019161097a565b820191906000526020600020905b81548152906001019060200180831161095d57829003601f168201915b50505050509080600501805461098f90614ff4565b80601f01602080910402602001604051908101604052809291908181526020018280546109bb90614ff4565b8015610a085780601f106109dd57610100808354040283529160200191610a08565b820191906000526020600020905b8154815290600101906020018083116109eb57829003601f168201915b5050505050908060060154908060070154905088565b610a2661391c565b600082118015610a37575060055482105b610a76576040517f08c379a0000000000000000000000000000000000000000000000000000000008152600401610a6d90614a11565b60405180910390fd5b600160008381526020019081526020016000206040518061010001604052908160008201548152602001600182018054610aaf90614ff4565b80601f0160208091040260200160405190810160405280929190818152602001828054610adb90614ff4565b8015610b285780601f10610afd57610100808354040283529160200191610b28565b820191906000526020600020905b815481529060010190602001808311610b0b57829003601f168201915b50505050508152602001600282018054610b4190614ff4565b80601f0160208091040260200160405190810160405280929190818152602001828054610b6d90614ff4565b8015610bba5780601f10610b8f57610100808354040283529160200191610bba565b820191906000526020600020905b815481529060010190602001808311610b9d57829003601f168201915b505050505081526020016003820160009054906101000a900473ffffffffffffffffffffffffffffffffffffffff1673ffffffffffffffffffffffffffffffffffffffff1673ffffffffffffffffffffffffffffffffffffffff168152602001600482018054610c2990614ff4565b80601f0160208091040260200160405190810160405280929190818152602001828054610c5590614ff4565b8015610ca25780601f10610c7757610100808354040283529160200191610ca2565b820191906000526020600020905b815481529060010190602001808311610c8557829003601f168201915b50505050508152602001600582018054610cbb90614ff4565b80601f0160208091040260200160405190810160405280929190818152602001828054610ce790614ff4565b8015610d345780601f10610d0957610100808354040283529160200191610d34565b820191906000526020600020905b815481529060010190602001808311610d1757829003601f168201915b50505050508152602001600682015481526020016007820154815250509050919050565b600860019054906101000a900473ffffffffffffffffffffffffffffffffffffffff1673ffffffffffffffffffffffffffffffffffffffff163373ffffffffffffffffffffffffffffffffffffffff1614610de8576040517f08c379a0000000000000000000000000000000000000000000000000000000008152600401610ddf90614951565b60405180910390fd5b600480811115610e21577f4e487b7100000000000000000000000000000000000000000000000000000000600052602160045260246000fd5b600860009054906101000a900460ff166004811115610e69577f4e487b7100000000000000000000000000000000000000000000000000000000600052602160045260246000fd5b1415610eaa576040517f08c379a0000000000000000000000000000000000000000000000000000000008152600401610ea190614991565b60405180910390fd5b60016004811115610ee4577f4e487b7100000000000000000000000000000000000000000000000000000000600052602160045260246000fd5b600860009054906101000a900460ff166004811115610f2c577f4e487b7100000000000000000000000000000000000000000000000000000000600052602160045260246000fd5b1415610f88576002600860006101000a81548160ff02191690836004811115610f7e577f4e487b7100000000000000000000000000000000000000000000000000000000600052602160045260246000fd5b021790555061114a565b60026004811115610fc2577f4e487b7100000000000000000000000000000000000000000000000000000000600052602160045260246000fd5b600860009054906101000a900460ff16600481111561100a577f4e487b7100000000000000000000000000000000000000000000000000000000600052602160045260246000fd5b1415611066576003600860006101000a81548160ff0219169083600481111561105c577f4e487b7100000000000000000000000000000000000000000000000000000000600052602160045260246000fd5b0217905550611149565b600360048111156110a0577f4e487b7100000000000000000000000000000000000000000000000000000000600052602160045260246000fd5b600860009054906101000a900460ff1660048111156110e8577f4e487b7100000000000000000000000000000000000000000000000000000000600052602160045260246000fd5b1415611148576004600860006101000a81548160ff0219169083600481111561113a577f4e487b7100000000000000000000000000000000000000000000000000000000600052602160045260246000fd5b0217905550611147613783565b5b5b5b7f2249eb0cc45f3a682d4035534cdf0a5c3a3118fd5eced9484e83d1589acfb856600860009054906101000a900460ff1660405161118891906148f6565b60405180910390a1565b60065481565b606060048060048111156111d5577f4e487b7100000000000000000000000000000000000000000000000000000000600052602160045260246000fd5b600860009054906101000a900460ff16600481111561121d577f4e487b7100000000000000000000000000000000000000000000000000000000600052602160045260246000fd5b1461125d576040517f08c379a000000000000000000000000000000000000000000000000000000000815260040161125490614971565b60405180910390fd5b6000600160055461126e9190614f11565b67ffffffffffffffff8111156112ad577f4e487b7100000000000000000000000000000000000000000000000000000000600052604160045260246000fd5b6040519080825280602002602001820160405280156112e657816020015b6112d361391c565b8152602001906001900390816112cb5790505b5090506000600190505b6005548110156116385760016000828152602001908152602001600020604051806101000160405290816000820154815260200160018201805461133390614ff4565b80601f016020809104026020016040519081016040528092919081815260200182805461135f90614ff4565b80156113ac5780601f10611381576101008083540402835291602001916113ac565b820191906000526020600020905b81548152906001019060200180831161138f57829003601f168201915b505050505081526020016002820180546113c590614ff4565b80601f01602080910402602001604051908101604052809291908181526020018280546113f190614ff4565b801561143e5780601f106114135761010080835404028352916020019161143e565b820191906000526020600020905b81548152906001019060200180831161142157829003601f168201915b505050505081526020016003820160009054906101000a900473ffffffffffffffffffffffffffffffffffffffff1673ffffffffffffffffffffffffffffffffffffffff1673ffffffffffffffffffffffffffffffffffffffff1681526020016004820180546114ad90614ff4565b80601f01602080910402602001604051908101604052809291908181526020018280546114d990614ff4565b80156115265780601f106114fb57610100808354040283529160200191611526565b820191906000526020600020905b81548152906001019060200180831161150957829003601f168201915b5050505050815260200160058201805461153f90614ff4565b80601f016020809104026020016040519081016040528092919081815260200182805461156b90614ff4565b80156115b85780601f1061158d576101008083540402835291602001916115b8565b820191906000526020600020905b81548152906001019060200180831161159b57829003601f168201915b5050505050815260200160068201548152602001600782015481525050826001836115e39190614f11565b8151811061161a577f4e487b7100000000000000000000000000000000000000000000000000000000600052603260045260246000fd5b6020026020010181905250808061163090615026565b9150506112f0565b50809250505090565b600860019054906101000a900473ffffffffffffffffffffffffffffffffffffffff1673ffffffffffffffffffffffffffffffffffffffff163373ffffffffffffffffffffffffffffffffffffffff16146116d1576040517f08c379a00000000000000000000000000000000000000000000000000000000081526004016116c890614951565b60405180910390fd5b600280600481111561170c577f4e487b7100000000000000000000000000000000000000000000000000000000600052602160045260246000fd5b600860009054906101000a900460ff166004811115611754577f4e487b7100000000000000000000000000000000000000000000000000000000600052602160045260246000fd5b14611794576040517f08c379a000000000000000000000000000000000000000000000000000000000815260040161178b90614971565b60405180910390fd5b60405180610100016040528060055481526020018881526020018781526020018673ffffffffffffffffffffffffffffffffffffffff1681526020018581526020018481526020018381526020016000815250600160006005548152602001908152602001600020600082015181600001556020820151816001019080519060200190611822929190613977565b50604082015181600201908051906020019061183f929190613977565b5060608201518160030160006101000a81548173ffffffffffffffffffffffffffffffffffffffff021916908373ffffffffffffffffffffffffffffffffffffffff16021790555060808201518160040190805190602001906118a3929190613977565b5060a08201518160050190805190602001906118c0929190613977565b5060c0820151816006015560e082015181600701559050507f8178d66a5b70a90fe21484996596453f3afd1cd277f4c92612ec2a4e890eb7e26005548888888888886040516119159796959493929190614ab0565b60405180910390a16005600081548092919061193090615026565b919050555050505050505050565b600860019054906101000a900473ffffffffffffffffffffffffffffffffffffffff1673ffffffffffffffffffffffffffffffffffffffff163373ffffffffffffffffffffffffffffffffffffffff16146119ce576040517f08c379a00000000000000000000000000000000000000000000000000000000081526004016119c590614951565b60405180910390fd5b6000806004811115611a09577f4e487b7100000000000000000000000000000000000000000000000000000000600052602160045260246000fd5b600860009054906101000a900460ff166004811115611a51577f4e487b7100000000000000000000000000000000000000000000000000000000600052602160045260246000fd5b14611a91576040517f08c379a0000000000000000000000000000000000000000000000000000000008152600401611a8890614971565b60405180910390fd5b6001600860006101000a81548160ff02191690836004811115611add577f4e487b7100000000000000000000000000000000000000000000000000000000600052602160045260246000fd5b02179055507f2249eb0cc45f3a682d4035534cdf0a5c3a3118fd5eced9484e83d1589acfb856600860009054906101000a900460ff16604051611b2091906148f6565b60405180910390a150565b6002602052806000526040600020600091509050806000015490806001018054611b5490614ff4565b80601f0160208091040260200160405190810160405280929190818152602001828054611b8090614ff4565b8015611bcd5780601f10611ba257610100808354040283529160200191611bcd565b820191906000526020600020905b815481529060010190602001808311611bb057829003601f168201915b505050505090806002018054611be290614ff4565b80601f0160208091040260200160405190810160405280929190818152602001828054611c0e90614ff4565b8015611c5b5780601f10611c3057610100808354040283529160200191611c5b565b820191906000526020600020905b815481529060010190602001808311611c3e57829003601f168201915b5050505050908060030160009054906101000a900473ffffffffffffffffffffffffffffffffffffffff1690806004018054611c9690614ff4565b80601f0160208091040260200160405190810160405280929190818152602001828054611cc290614ff4565b8015611d0f5780601f10611ce457610100808354040283529160200191611d0f565b820191906000526020600020905b815481529060010190602001808311611cf257829003601f168201915b5050505050908060050154908060060160009054906101000a900460ff16905087565b60055481565b600860019054906101000a900473ffffffffffffffffffffffffffffffffffffffff1673ffffffffffffffffffffffffffffffffffffffff163373ffffffffffffffffffffffffffffffffffffffff1614611dc8576040517f08c379a0000000000000000000000000000000000000000000000000000000008152600401611dbf90614951565b60405180910390fd5b6002806004811115611e03577f4e487b7100000000000000000000000000000000000000000000000000000000600052602160045260246000fd5b600860009054906101000a900460ff166004811115611e4b577f4e487b7100000000000000000000000000000000000000000000000000000000600052602160045260246000fd5b14611e8b576040517f08c379a0000000000000000000000000000000000000000000000000000000008152600401611e8290614971565b60405180910390fd5b85518751148015611e9d575084518651145b8015611eaa575083518551145b8015611eb7575082518451145b8015611ec4575081518351145b611f03576040517f08c379a0000000000000000000000000000000000000000000000000000000008152600401611efa906149b1565b60405180910390fd5b60005b87518110156123c3576040518061010001604052806005548152602001898381518110611f5c577f4e487b7100000000000000000000000000000000000000000000000000000000600052603260045260246000fd5b60200260200101518152602001888381518110611fa2577f4e487b7100000000000000000000000000000000000000000000000000000000600052603260045260246000fd5b60200260200101518152602001878381518110611fe8577f4e487b7100000000000000000000000000000000000000000000000000000000600052603260045260246000fd5b602002602001015173ffffffffffffffffffffffffffffffffffffffff168152602001868381518110612044577f4e487b7100000000000000000000000000000000000000000000000000000000600052603260045260246000fd5b6020026020010151815260200185838151811061208a577f4e487b7100000000000000000000000000000000000000000000000000000000600052603260045260246000fd5b602002602001015181526020018483815181106120d0577f4e487b7100000000000000000000000000000000000000000000000000000000600052603260045260246000fd5b60200260200101518152602001600081525060016000600554815260200190815260200160002060008201518160000155602082015181600101908051906020019061211d929190613977565b50604082015181600201908051906020019061213a929190613977565b5060608201518160030160006101000a81548173ffffffffffffffffffffffffffffffffffffffff021916908373ffffffffffffffffffffffffffffffffffffffff160217905550608082015181600401908051906020019061219e929190613977565b5060a08201518160050190805190602001906121bb929190613977565b5060c0820151816006015560e082015181600701559050507f8178d66a5b70a90fe21484996596453f3afd1cd277f4c92612ec2a4e890eb7e2600554898381518110612230577f4e487b7100000000000000000000000000000000000000000000000000000000600052603260045260246000fd5b6020026020010151898481518110612271577f4e487b7100000000000000000000000000000000000000000000000000000000600052603260045260246000fd5b60200260200101518985815181106122b2577f4e487b7100000000000000000000000000000000000000000000000000000000600052603260045260246000fd5b60200260200101518986815181106122f3577f4e487b7100000000000000000000000000000000000000000000000000000000600052603260045260246000fd5b6020026020010151898781518110612334577f4e487b7100000000000000000000000000000000000000000000000000000000600052603260045260246000fd5b6020026020010151898881518110612375577f4e487b7100000000000000000000000000000000000000000000000000000000600052603260045260246000fd5b60200260200101516040516123909796959493929190614ab0565b60405180910390a1600560008154809291906123ab90615026565b919050555080806123bb90615026565b915050611f06565b5050505050505050565b6123d56139fd565b6000600260008473ffffffffffffffffffffffffffffffffffffffff1673ffffffffffffffffffffffffffffffffffffffff16815260200190815260200160002060000154141561245b576040517f08c379a000000000000000000000000000000000000000000000000000000000815260040161245290614a31565b60405180910390fd5b600260008373ffffffffffffffffffffffffffffffffffffffff1673ffffffffffffffffffffffffffffffffffffffff1681526020019081526020016000206040518060e0016040529081600082015481526020016001820180546124bf90614ff4565b80601f01602080910402602001604051908101604052809291908181526020018280546124eb90614ff4565b80156125385780601f1061250d57610100808354040283529160200191612538565b820191906000526020600020905b81548152906001019060200180831161251b57829003601f168201915b5050505050815260200160028201805461255190614ff4565b80601f016020809104026020016040519081016040528092919081815260200182805461257d90614ff4565b80156125ca5780601f1061259f576101008083540402835291602001916125ca565b820191906000526020600020905b8154815290600101906020018083116125ad57829003601f168201915b505050505081526020016003820160009054906101000a900473ffffffffffffffffffffffffffffffffffffffff1673ffffffffffffffffffffffffffffffffffffffff1673ffffffffffffffffffffffffffffffffffffffff16815260200160048201805461263990614ff4565b80601f016020809104026020016040519081016040528092919081815260200182805461266590614ff4565b80156126b25780601f10612687576101008083540402835291602001916126b2565b820191906000526020600020905b81548152906001019060200180831161269557829003601f168201915b50505050508152602001600582015481526020016006820160009054906101000a900460ff1615151515815250509050919050565b600381815481106126f757600080fd5b906000526020600020016000915054906101000a900473ffffffffffffffffffffffffffffffffffffffff1681565b600860019054906101000a900473ffffffffffffffffffffffffffffffffffffffff1673ffffffffffffffffffffffffffffffffffffffff163373ffffffffffffffffffffffffffffffffffffffff16146127b6576040517f08c379a00000000000000000000000000000000000000000000000000000000081526004016127ad90614951565b60405180910390fd5b60048060048111156127f1577f4e487b7100000000000000000000000000000000000000000000000000000000600052602160045260246000fd5b600860009054906101000a900460ff166004811115612839577f4e487b7100000000000000000000000000000000000000000000000000000000600052602160045260246000fd5b14612879576040517f08c379a000000000000000000000000000000000000000000000000000000000815260040161287090614971565b60405180910390fd5b60005b6003805490508110156129bd5760026000600383815481106128c7577f4e487b7100000000000000000000000000000000000000000000000000000000600052603260045260246000fd5b9060005260206000200160009054906101000a900473ffffffffffffffffffffffffffffffffffffffff1673ffffffffffffffffffffffffffffffffffffffff1673ffffffffffffffffffffffffffffffffffffffff1681526020019081526020016000206000808201600090556001820160006129459190613a52565b6002820160006129559190613a52565b6003820160006101000a81549073ffffffffffffffffffffffffffffffffffffffff021916905560048201600061298c9190613a52565b60058201600090556006820160006101000a81549060ff0219169055505080806129b590615026565b91505061287c565b50600360006129cc9190613a92565b6000600190505b600554811015612a855760016000828152602001908152602001600020600080820160009055600182016000612a099190613a52565b600282016000612a199190613a52565b6003820160006101000a81549073ffffffffffffffffffffffffffffffffffffffff0219169055600482016000612a509190613a52565b600582016000612a609190613a52565b6006820160009055600782016000905550508080612a7d90615026565b9150506129d3565b506000600481905550600160058190555060016006819055506000600860006101000a81548160ff02191690836004811115612aea577f4e487b7100000000000000000000000000000000000000000000000000000000600052602160045260246000fd5b02179055507f2249eb0cc45f3a682d4035534cdf0a5c3a3118fd5eced9484e83d1589acfb856600860009054906101000a900460ff16604051612b2d91906148f6565b60405180910390a150565b600860019054906101000a900473ffffffffffffffffffffffffffffffffffffffff1673ffffffffffffffffffffffffffffffffffffffff163373ffffffffffffffffffffffffffffffffffffffff1614612bc8576040517f08c379a0000000000000000000000000000000000000000000000000000000008152600401612bbf90614951565b60405180910390fd5b6001806004811115612c03577f4e487b7100000000000000000000000000000000000000000000000000000000600052602160045260246000fd5b600860009054906101000a900460ff166004811115612c4b577f4e487b7100000000000000000000000000000000000000000000000000000000600052602160045260246000fd5b14612c8b576040517f08c379a0000000000000000000000000000000000000000000000000000000008152600401612c8290614971565b60405180910390fd5b6000600260008873ffffffffffffffffffffffffffffffffffffffff1673ffffffffffffffffffffffffffffffffffffffff1681526020019081526020016000206000015414612d10576040517f08c379a0000000000000000000000000000000000000000000000000000000008152600401612d0790614931565b60405180910390fd5b6040518060e0016040528060065481526020018681526020018581526020018773ffffffffffffffffffffffffffffffffffffffff16815260200184815260200183815260200160001515815250600260008873ffffffffffffffffffffffffffffffffffffffff1673ffffffffffffffffffffffffffffffffffffffff168152602001908152602001600020600082015181600001556020820151816001019080519060200190612dc3929190613977565b506040820151816002019080519060200190612de0929190613977565b5060608201518160030160006101000a81548173ffffffffffffffffffffffffffffffffffffffff021916908373ffffffffffffffffffffffffffffffffffffffff1602179055506080820151816004019080519060200190612e44929190613977565b5060a0820151816005015560c08201518160060160006101000a81548160ff0219169083151502179055509050506003869080600181540180825580915050600190039060005260206000200160009091909190916101000a81548173ffffffffffffffffffffffffffffffffffffffff021916908373ffffffffffffffffffffffffffffffffffffffff1602179055507f328acc3192af8c50df454d79b0023b64ae9abd404bd459981e5482141870f5f16006548686898787604051612f1096959493929190614bd5565b60405180910390a160066000815480929190612f2b90615026565b9190505550505050505050565b600860019054906101000a900473ffffffffffffffffffffffffffffffffffffffff1673ffffffffffffffffffffffffffffffffffffffff163373ffffffffffffffffffffffffffffffffffffffff1614612fc8576040517f08c379a0000000000000000000000000000000000000000000000000000000008152600401612fbf90614951565b60405180910390fd5b6001806004811115613003577f4e487b7100000000000000000000000000000000000000000000000000000000600052602160045260246000fd5b600860009054906101000a900460ff16600481111561304b577f4e487b7100000000000000000000000000000000000000000000000000000000600052602160045260246000fd5b1461308b576040517f08c379a000000000000000000000000000000000000000000000000000000000815260040161308290614971565b60405180910390fd5b8451865114801561309d575083518551145b80156130aa575082518451145b80156130b7575081518351145b6130f6576040517f08c379a00000000000000000000000000000000000000000000000000000000081526004016130ed906149b1565b60405180910390fd5b60005b86518110156136fa57600060026000898481518110613141577f4e487b7100000000000000000000000000000000000000000000000000000000600052603260045260246000fd5b602002602001015173ffffffffffffffffffffffffffffffffffffffff1673ffffffffffffffffffffffffffffffffffffffff16815260200190815260200160002060000154146131c7576040517f08c379a00000000000000000000000000000000000000000000000000000000081526004016131be90614931565b60405180910390fd5b6040518060e001604052806006548152602001878381518110613213577f4e487b7100000000000000000000000000000000000000000000000000000000600052603260045260246000fd5b60200260200101518152602001868381518110613259577f4e487b7100000000000000000000000000000000000000000000000000000000600052603260045260246000fd5b6020026020010151815260200188838151811061329f577f4e487b7100000000000000000000000000000000000000000000000000000000600052603260045260246000fd5b602002602001015173ffffffffffffffffffffffffffffffffffffffff1681526020018583815181106132fb577f4e487b7100000000000000000000000000000000000000000000000000000000600052603260045260246000fd5b60200260200101518152602001848381518110613341577f4e487b7100000000000000000000000000000000000000000000000000000000600052603260045260246000fd5b602002602001015181526020016000151581525060026000898481518110613392577f4e487b7100000000000000000000000000000000000000000000000000000000600052603260045260246000fd5b602002602001015173ffffffffffffffffffffffffffffffffffffffff1673ffffffffffffffffffffffffffffffffffffffff1681526020019081526020016000206000820151816000015560208201518160010190805190602001906133fa929190613977565b506040820151816002019080519060200190613417929190613977565b5060608201518160030160006101000a81548173ffffffffffffffffffffffffffffffffffffffff021916908373ffffffffffffffffffffffffffffffffffffffff160217905550608082015181600401908051906020019061347b929190613977565b5060a0820151816005015560c08201518160060160006101000a81548160ff02191690831515021790555090505060038782815181106134e4577f4e487b7100000000000000000000000000000000000000000000000000000000600052603260045260246000fd5b60200260200101519080600181540180825580915050600190039060005260206000200160009091909190916101000a81548173ffffffffffffffffffffffffffffffffffffffff021916908373ffffffffffffffffffffffffffffffffffffffff1602179055507f328acc3192af8c50df454d79b0023b64ae9abd404bd459981e5482141870f5f16006548783815181106135a9577f4e487b7100000000000000000000000000000000000000000000000000000000600052603260045260246000fd5b60200260200101518784815181106135ea577f4e487b7100000000000000000000000000000000000000000000000000000000600052603260045260246000fd5b60200260200101518a858151811061362b577f4e487b7100000000000000000000000000000000000000000000000000000000600052603260045260246000fd5b602002602001015188868151811061366c577f4e487b7100000000000000000000000000000000000000000000000000000000600052603260045260246000fd5b60200260200101518887815181106136ad577f4e487b7100000000000000000000000000000000000000000000000000000000600052603260045260246000fd5b60200260200101516040516136c796959493929190614bd5565b60405180910390a1600660008154809291906136e290615026565b919050555080806136f290615026565b9150506130f9565b50505050505050565b600860019054906101000a900473ffffffffffffffffffffffffffffffffffffffff1681565b6002600054141561376f576040517f08c379a0000000000000000000000000000000000000000000000000000000008152600401613766906149f1565b60405180910390fd5b6002600081905550565b6001600081905550565b60048060048111156137be577f4e487b7100000000000000000000000000000000000000000000000000000000600052602160045260246000fd5b600860009054906101000a900460ff166004811115613806577f4e487b7100000000000000000000000000000000000000000000000000000000600052602160045260246000fd5b14613846576040517f08c379a000000000000000000000000000000000000000000000000000000000815260040161383d90614971565b60405180910390fd5b6000806000600190505b6005548110156138a857826001600083815260200190815260200160002060070154111561389557600160008281526020019081526020016000206007015492508091505b80806138a090615026565b915050613850565b50806007819055507f7100ad329ef5e14ddac8bab892cd5ca9408f48e3fabd4461474b6204382741918160016000848152602001908152602001600020600101600160008581526020019081526020016000206002018560405161390f9493929190614ccf565b60405180910390a1505050565b604051806101000160405280600081526020016060815260200160608152602001600073ffffffffffffffffffffffffffffffffffffffff168152602001606081526020016060815260200160008152602001600081525090565b82805461398390614ff4565b90600052602060002090601f0160209004810192826139a557600085556139ec565b82601f106139be57805160ff19168380011785556139ec565b828001600101855582156139ec579182015b828111156139eb5782518255916020019190600101906139d0565b5b5090506139f99190613ab3565b5090565b6040518060e00160405280600081526020016060815260200160608152602001600073ffffffffffffffffffffffffffffffffffffffff16815260200160608152602001600081526020016000151581525090565b508054613a5e90614ff4565b6000825580601f10613a705750613a8f565b601f016020900490600052602060002090810190613a8e9190613ab3565b5b50565b5080546000825590600052602060002090810190613ab09190613ab3565b50565b5b80821115613acc576000816000905550600101613ab4565b5090565b6000613ae3613ade84614d53565b614d22565b90508083825260208201905082856020860282011115613b0257600080fd5b60005b85811015613b325781613b188882613c43565b845260208401935060208301925050600181019050613b05565b5050509392505050565b6000613b4f613b4a84614d7f565b614d22565b9050808382526020820190508260005b85811015613b8f5781358501613b758882613cd6565b845260208401935060208301925050600181019050613b5f565b5050509392505050565b6000613bac613ba784614dab565b614d22565b90508083825260208201905082856020860282011115613bcb57600080fd5b60005b85811015613bfb5781613be18882613d00565b845260208401935060208301925050600181019050613bce565b5050509392505050565b6000613c18613c1384614dd7565b614d22565b905082815260208101848484011115613c3057600080fd5b613c3b848285614fb2565b509392505050565b600081359050613c5281615150565b92915050565b600082601f830112613c6957600080fd5b8135613c79848260208601613ad0565b91505092915050565b600082601f830112613c9357600080fd5b8135613ca3848260208601613b3c565b91505092915050565b600082601f830112613cbd57600080fd5b8135613ccd848260208601613b99565b91505092915050565b600082601f830112613ce757600080fd5b8135613cf7848260208601613c05565b91505092915050565b600081359050613d0f81615167565b92915050565b600060208284031215613d2757600080fd5b6000613d3584828501613c43565b91505092915050565b600080600080600060a08688031215613d5657600080fd5b6000613d6488828901613c43565b955050602086013567ffffffffffffffff811115613d8157600080fd5b613d8d88828901613cd6565b945050604086013567ffffffffffffffff811115613daa57600080fd5b613db688828901613cd6565b935050606086013567ffffffffffffffff811115613dd357600080fd5b613ddf88828901613cd6565b9250506080613df088828901613d00565b9150509295509295909350565b600080600080600060a08688031215613e1557600080fd5b600086013567ffffffffffffffff811115613e2f57600080fd5b613e3b88828901613c58565b955050602086013567ffffffffffffffff811115613e5857600080fd5b613e6488828901613c82565b945050604086013567ffffffffffffffff811115613e8157600080fd5b613e8d88828901613c82565b935050606086013567ffffffffffffffff811115613eaa57600080fd5b613eb688828901613c82565b925050608086013567ffffffffffffffff811115613ed357600080fd5b613edf88828901613cac565b9150509295509295909350565b60008060008060008060c08789031215613f0557600080fd5b600087013567ffffffffffffffff811115613f1f57600080fd5b613f2b89828a01613c82565b965050602087013567ffffffffffffffff811115613f4857600080fd5b613f5489828a01613c82565b955050604087013567ffffffffffffffff811115613f7157600080fd5b613f7d89828a01613c58565b945050606087013567ffffffffffffffff811115613f9a57600080fd5b613fa689828a01613c82565b935050608087013567ffffffffffffffff811115613fc357600080fd5b613fcf89828a01613c82565b92505060a087013567ffffffffffffffff811115613fec57600080fd5b613ff889828a01613cac565b9150509295509295509295565b60008060008060008060c0878903121561401e57600080fd5b600087013567ffffffffffffffff81111561403857600080fd5b61404489828a01613cd6565b965050602087013567ffffffffffffffff81111561406157600080fd5b61406d89828a01613cd6565b955050604061407e89828a01613c43565b945050606087013567ffffffffffffffff81111561409b57600080fd5b6140a789828a01613cd6565b935050608087013567ffffffffffffffff8111156140c457600080fd5b6140d089828a01613cd6565b92505060a06140e189828a01613d00565b9150509295509295509295565b60006020828403121561410057600080fd5b600061410e84828501613d00565b91505092915050565b60006141238383614143565b60208301905092915050565b600061413b8383614645565b905092915050565b61414c81614f45565b82525050565b61415b81614f45565b82525050565b600061416c82614e3c565b6141768185614e77565b935061418183614e07565b8060005b838110156141b25781516141998882614117565b97506141a483614e5d565b925050600181019050614185565b5085935050505092915050565b60006141ca82614e47565b6141d48185614e88565b9350836020820285016141e685614e17565b8060005b858110156142225784840389528151614203858261412f565b945061420e83614e6a565b925060208a019950506001810190506141ea565b50829750879550505050505092915050565b61423d81614f57565b82525050565b61424c81614f57565b82525050565b61425b81614fa0565b82525050565b600061426c82614e52565b6142768185614e99565b9350614286818560208601614fc1565b61428f8161512b565b840191505092915050565b60006142a582614e52565b6142af8185614eaa565b93506142bf818560208601614fc1565b6142c88161512b565b840191505092915050565b600081546142e081614ff4565b6142ea8186614eaa565b9450600182166000811461430557600181146143175761434a565b60ff198316865260208601935061434a565b61432085614e27565b60005b8381101561434257815481890152600182019150602081019050614323565b808801955050505b50505092915050565b6000614360601783614eaa565b91507f596f75206861766520616c726561647920766f7465642e0000000000000000006000830152602082019050919050565b60006143a0601983614eaa565b91507f566f74657220616c726561647920726567697374657265642e000000000000006000830152602082019050919050565b60006143e0602383614eaa565b91507f4f6e6c792061646d696e2063616e20706572666f726d2074686973206163746960008301527f6f6e2e00000000000000000000000000000000000000000000000000000000006020830152604082019050919050565b6000614446603083614eaa565b91507f5468697320616374696f6e206973206e6f7420616c6c6f77656420696e20746860008301527f652063757272656e742070686173652e000000000000000000000000000000006020830152604082019050919050565b60006144ac601b83614eaa565b91507f456c656374696f6e2068617320616c726561647920656e6465642e00000000006000830152602082019050919050565b60006144ec602a83614eaa565b91507f4c6573207461626c6561757820646f6976656e742061766f6972206c61206d6560008301527f6d65207461696c6c652e000000000000000000000000000000000000000000006020830152604082019050919050565b6000614552601f83614eaa565b91507f596f7520617265206e6f742061207265676973746572656420766f7465722e006000830152602082019050919050565b6000614592601f83614eaa565b91507f5265656e7472616e637947756172643a207265656e7472616e742063616c6c006000830152602082019050919050565b60006145d2601983614eaa565b91507f43616e64696461746520646f6573206e6f742065786973742e000000000000006000830152602082019050919050565b6000614612601083614eaa565b91507f566f746572206e6f7420666f756e642e000000000000000000000000000000006000830152602082019050919050565b60006101008301600083015161465e6000860182614879565b50602083015184820360208601526146768282614261565b915050604083015184820360408601526146908282614261565b91505060608301516146a56060860182614143565b50608083015184820360808601526146bd8282614261565b91505060a083015184820360a08601526146d78282614261565b91505060c08301516146ec60c0860182614879565b5060e08301516146ff60e0860182614879565b508091505092915050565b6000610100830160008301516147236000860182614879565b506020830151848203602086015261473b8282614261565b915050604083015184820360408601526147558282614261565b915050606083015161476a6060860182614143565b50608083015184820360808601526147828282614261565b91505060a083015184820360a086015261479c8282614261565b91505060c08301516147b160c0860182614879565b5060e08301516147c460e0860182614879565b508091505092915050565b600060e0830160008301516147e76000860182614879565b50602083015184820360208601526147ff8282614261565b915050604083015184820360408601526148198282614261565b915050606083015161482e6060860182614143565b50608083015184820360808601526148468282614261565b91505060a083015161485b60a0860182614879565b5060c083015161486e60c0860182614234565b508091505092915050565b61488281614f96565b82525050565b61489181614f96565b82525050565b60006020820190506148ac6000830184614152565b92915050565b600060208201905081810360008301526148cc8184614161565b905092915050565b600060208201905081810360008301526148ee81846141bf565b905092915050565b600060208201905061490b6000830184614252565b92915050565b6000602082019050818103600083015261492a81614353565b9050919050565b6000602082019050818103600083015261494a81614393565b9050919050565b6000602082019050818103600083015261496a816143d3565b9050919050565b6000602082019050818103600083015261498a81614439565b9050919050565b600060208201905081810360008301526149aa8161449f565b9050919050565b600060208201905081810360008301526149ca816144df565b9050919050565b600060208201905081810360008301526149ea81614545565b9050919050565b60006020820190508181036000830152614a0a81614585565b9050919050565b60006020820190508181036000830152614a2a816145c5565b9050919050565b60006020820190508181036000830152614a4a81614605565b9050919050565b60006020820190508181036000830152614a6b818461470a565b905092915050565b60006020820190508181036000830152614a8d81846147cf565b905092915050565b6000602082019050614aaa6000830184614888565b92915050565b600060e082019050614ac5600083018a614888565b8181036020830152614ad7818961429a565b90508181036040830152614aeb818861429a565b9050614afa6060830187614152565b8181036080830152614b0c818661429a565b905081810360a0830152614b20818561429a565b9050614b2f60c0830184614888565b98975050505050505050565b600061010082019050614b51600083018b614888565b8181036020830152614b63818a61429a565b90508181036040830152614b77818961429a565b9050614b866060830188614152565b8181036080830152614b98818761429a565b905081810360a0830152614bac818661429a565b9050614bbb60c0830185614888565b614bc860e0830184614888565b9998505050505050505050565b600060c082019050614bea6000830189614888565b8181036020830152614bfc818861429a565b90508181036040830152614c10818761429a565b9050614c1f6060830186614152565b8181036080830152614c31818561429a565b9050614c4060a0830184614888565b979650505050505050565b600060e082019050614c60600083018a614888565b8181036020830152614c72818961429a565b90508181036040830152614c86818861429a565b9050614c956060830187614152565b8181036080830152614ca7818661429a565b9050614cb660a0830185614888565b614cc360c0830184614243565b98975050505050505050565b6000608082019050614ce46000830187614888565b8181036020830152614cf681866142d3565b90508181036040830152614d0a81856142d3565b9050614d196060830184614888565b95945050505050565b6000604051905081810181811067ffffffffffffffff82111715614d4957614d486150fc565b5b8060405250919050565b600067ffffffffffffffff821115614d6e57614d6d6150fc565b5b602082029050602081019050919050565b600067ffffffffffffffff821115614d9a57614d996150fc565b5b602082029050602081019050919050565b600067ffffffffffffffff821115614dc657614dc56150fc565b5b602082029050602081019050919050565b600067ffffffffffffffff821115614df257614df16150fc565b5b601f19601f8301169050602081019050919050565b6000819050602082019050919050565b6000819050602082019050919050565b60008190508160005260206000209050919050565b600081519050919050565b600081519050919050565b600081519050919050565b6000602082019050919050565b6000602082019050919050565b600082825260208201905092915050565b600082825260208201905092915050565b600082825260208201905092915050565b600082825260208201905092915050565b6000614ec682614f96565b9150614ed183614f96565b9250827fffffffffffffffffffffffffffffffffffffffffffffffffffffffffffffffff03821115614f0657614f0561506f565b5b828201905092915050565b6000614f1c82614f96565b9150614f2783614f96565b925082821015614f3a57614f3961506f565b5b828203905092915050565b6000614f5082614f76565b9050919050565b60008115159050919050565b6000819050614f718261513c565b919050565b600073ffffffffffffffffffffffffffffffffffffffff82169050919050565b6000819050919050565b6000614fab82614f63565b9050919050565b82818337600083830152505050565b60005b83811015614fdf578082015181840152602081019050614fc4565b83811115614fee576000848401525b50505050565b6000600282049050600182168061500c57607f821691505b602082108114156150205761501f6150cd565b5b50919050565b600061503182614f96565b91507fffffffffffffffffffffffffffffffffffffffffffffffffffffffffffffffff8214156150645761506361506f565b5b600182019050919050565b7f4e487b7100000000000000000000000000000000000000000000000000000000600052601160045260246000fd5b7f4e487b7100000000000000000000000000000000000000000000000000000000600052602160045260246000fd5b7f4e487b7100000000000000000000000000000000000000000000000000000000600052602260045260246000fd5b7f4e487b7100000000000000000000000000000000000000000000000000000000600052604160045260246000fd5b6000601f19601f8301169050919050565b6005811061514d5761514c61509e565b5b50565b61515981614f45565b811461516457600080fd5b50565b61517081614f96565b811461517b57600080fd5b5056fea264697066735822122044ecc7f2ef688d40343f89d2f63807d9b5bff9655fdf8a58474e45383568b3b764736f6c63430008000033",
  "immutableReferences": {},
  "source": "// SPDX-License-Identifier: MIT\r\npragma solidity ^0.8.0;\r\n\r\nimport \"@openzeppelin/contracts/security/ReentrancyGuard.sol\";\r\n\r\n/**\r\n * @title VotingSystem\r\n * @dev Un systme de vote dcentralis pour grer une lection en plusieurs phases.\r\n */\r\ncontract VotingSystem is ReentrancyGuard {\r\n    // Structure pour reprsenter un candidat\r\n    struct Candidate {\r\n        uint256 id;\r\n        string firstName;\r\n        string lastName;\r\n        address addressCandidate;\r\n        string certificationCode;\r\n        string politicalParty; // nouveau champ : partie politique\r\n        uint256 age;           // nouveau champ : age\r\n        uint256 voteCount;\r\n    }\r\n\r\n    // Structure pour reprsenter un lecteur\r\n    struct Voter {\r\n        uint256 id;\r\n        string firstName;\r\n        string lastName;\r\n        address addressVoter;\r\n        string idCardNumber; // nouveau champ : numro de carte d'identit\r\n        uint256 age;         // nouveau champ : age\r\n        bool hasVoted;\r\n    }\r\n\r\n    // Mappings pour stocker les candidats et les lecteurs\r\n    mapping(uint256 => Candidate) public candidates;\r\n    mapping(address => Voter) public voters;\r\n\r\n    // Tableau pour stocker les adresses des lecteurs\r\n    address[] public voterAddresses;\r\n\r\n    // Variables d'tat\r\n    uint256 public totalVotes;\r\n    uint256 public candidateCount;\r\n    uint256 public voterCount;\r\n    uint256 public winnerCandidateId; // ID du gagnant\r\n\r\n    // Enumration pour les phases de l'lection\r\n    enum ElectionPhase { NotStarted, VoterRegistration, CandidateRegistration, Voting, Results }\r\n    ElectionPhase public currentPhase;\r\n\r\n    // vnements\r\n    event CandidateAdded(\r\n        uint256 id,\r\n        string firstName,\r\n        string lastName,\r\n        address addressCandidate,\r\n        string certificationCode,\r\n        string politicalParty,\r\n        uint256 age\r\n    );\r\n    event VoterAdded(\r\n        uint256 id,\r\n        string firstName,\r\n        string lastName,\r\n        address addressVoter,\r\n        string idCardNumber,\r\n        uint256 age\r\n    );\r\n    event VoteCast(uint256 candidateId);\r\n    event ElectionPhaseChanged(ElectionPhase phase);\r\n    event WinnerDeclared(uint256 winnerId, string firstName, string lastName, uint256 voteCount);\r\n\r\n    // Adresse de l'administrateur\r\n    address public admin;\r\n\r\n    // Modificateur pour restreindre l'accs  l'administrateur\r\n    modifier onlyAdmin() {\r\n        require(msg.sender == admin, \"Only admin can perform this action.\");\r\n        _;\r\n    }\r\n\r\n    // Modificateur pour s'assurer que l'action se fait durant une phase spcifique\r\n    modifier onlyDuringPhase(ElectionPhase phase) {\r\n        require(currentPhase == phase, \"This action is not allowed in the current phase.\");\r\n        _;\r\n    }\r\n\r\n    // Modificateur pour s'assurer que l'appelant est un lecteur enregistr\r\n    modifier onlyRegisteredVoter() {\r\n        require(voters[msg.sender].id != 0, \"You are not a registered voter.\");\r\n        _;\r\n    }\r\n\r\n    constructor() {\r\n        admin = msg.sender;\r\n        candidateCount = 1;\r\n        voterCount = 1;\r\n        currentPhase = ElectionPhase.NotStarted;\r\n    }\r\n\r\n    /**\r\n     * @dev Dmarre l'lection en passant  la phase d'enregistrement des lecteurs.\r\n     */\r\n    function startElection() public onlyAdmin onlyDuringPhase(ElectionPhase.NotStarted) {\r\n        currentPhase = ElectionPhase.VoterRegistration;\r\n        emit ElectionPhaseChanged(currentPhase);\r\n    }\r\n\r\n    /**\r\n     * @dev Passe  la phase suivante de l'lection.\r\n     */\r\n    function nextPhase() public onlyAdmin {\r\n        require(currentPhase != ElectionPhase.Results, \"Election has already ended.\");\r\n\r\n        if (currentPhase == ElectionPhase.VoterRegistration) {\r\n            currentPhase = ElectionPhase.CandidateRegistration;\r\n        } else if (currentPhase == ElectionPhase.CandidateRegistration) {\r\n            currentPhase = ElectionPhase.Voting;\r\n        } else if (currentPhase == ElectionPhase.Voting) {\r\n            currentPhase = ElectionPhase.Results;\r\n            declareWinner(); // Dclaration du gagnant lors de la transition vers Results\r\n        }\r\n\r\n        emit ElectionPhaseChanged(currentPhase);\r\n    }\r\n\r\n    /**\r\n     * @dev Ajoute un lecteur pendant la phase d'enregistrement des lecteurs.\r\n     */\r\n    function addVoter(\r\n        address _voterAddress, \r\n        string memory _firstName, \r\n        string memory _lastName,\r\n        string memory _idCardNumber,\r\n        uint256 _age\r\n    ) \r\n        public \r\n        onlyAdmin \r\n        onlyDuringPhase(ElectionPhase.VoterRegistration)\r\n    {\r\n        require(voters[_voterAddress].id == 0, \"Voter already registered.\");\r\n\r\n        voters[_voterAddress] = Voter(voterCount, _firstName, _lastName, _voterAddress, _idCardNumber, _age, false);\r\n        voterAddresses.push(_voterAddress);\r\n        emit VoterAdded(voterCount, _firstName, _lastName, _voterAddress, _idCardNumber, _age);\r\n        voterCount++;\r\n    }\r\n    \r\n    /**\r\n     * @dev Ajoute plusieurs lecteurs simultanment via des tableaux (bulk registration).\r\n     */\r\n    function addVotersBulk(\r\n        address[] memory _voterAddresses,\r\n        string[] memory _firstNames,\r\n        string[] memory _lastNames,\r\n        string[] memory _idCardNumbers,\r\n        uint256[] memory _ages\r\n    ) public onlyAdmin onlyDuringPhase(ElectionPhase.VoterRegistration) {\r\n        require(\r\n            _voterAddresses.length == _firstNames.length &&\r\n            _firstNames.length == _lastNames.length &&\r\n            _lastNames.length == _idCardNumbers.length &&\r\n            _idCardNumbers.length == _ages.length,\r\n            \"Les tableaux doivent avoir la meme taille.\"\r\n        );\r\n        for (uint256 i = 0; i < _voterAddresses.length; i++) {\r\n            require(voters[_voterAddresses[i]].id == 0, \"Voter already registered.\");\r\n            voters[_voterAddresses[i]] = Voter(voterCount, _firstNames[i], _lastNames[i], _voterAddresses[i], _idCardNumbers[i], _ages[i], false);\r\n            voterAddresses.push(_voterAddresses[i]);\r\n            emit VoterAdded(voterCount, _firstNames[i], _lastNames[i], _voterAddresses[i], _idCardNumbers[i], _ages[i]);\r\n            voterCount++;\r\n        }\r\n    }\r\n\r\n    /**\r\n     * @dev Ajoute un candidat pendant la phase d'enregistrement des candidats.\r\n     */\r\n    function addCandidate(\r\n        string memory _firstName, \r\n        string memory _lastName, \r\n        address _addressCandidate, \r\n        string memory _certificationCode,\r\n        string memory _politicalParty,\r\n        uint256 _age\r\n    ) \r\n        public \r\n        onlyAdmin \r\n        onlyDuringPhase(ElectionPhase.CandidateRegistration)\r\n    {\r\n        candidates[candidateCount] = Candidate(\r\n            candidateCount, \r\n            _firstName, \r\n            _lastName, \r\n            _addressCandidate, \r\n            _certificationCode, \r\n            _politicalParty, \r\n            _age, \r\n            0\r\n        );\r\n        emit CandidateAdded(candidateCount, _firstName, _lastName, _addressCandidate, _certificationCode, _politicalParty, _age);\r\n        candidateCount++;\r\n    }\r\n    \r\n    /**\r\n     * @dev Ajoute plusieurs candidats simultanment via des tableaux (bulk registration).\r\n     */\r\n    function addCandidatesBulk(\r\n        string[] memory _firstNames,\r\n        string[] memory _lastNames,\r\n        address[] memory _addressCandidates,\r\n        string[] memory _certificationCodes,\r\n        string[] memory _politicalParties,\r\n        uint256[] memory _ages\r\n    ) public onlyAdmin onlyDuringPhase(ElectionPhase.CandidateRegistration) {\r\n        require(\r\n            _firstNames.length == _lastNames.length &&\r\n            _lastNames.length == _addressCandidates.length &&\r\n            _addressCandidates.length == _certificationCodes.length &&\r\n            _certificationCodes.length == _politicalParties.length &&\r\n            _politicalParties.length == _ages.length,\r\n            \"Les tableaux doivent avoir la meme taille.\"\r\n        );\r\n        for (uint256 i = 0; i < _firstNames.length; i++) {\r\n            candidates[candidateCount] = Candidate(\r\n                candidateCount,\r\n                _firstNames[i],\r\n                _lastNames[i],\r\n                _addressCandidates[i],\r\n                _certificationCodes[i],\r\n                _politicalParties[i],\r\n                _ages[i],\r\n                0\r\n            );\r\n            emit CandidateAdded(candidateCount, _firstNames[i], _lastNames[i], _addressCandidates[i], _certificationCodes[i], _politicalParties[i], _ages[i]);\r\n            candidateCount++;\r\n        }\r\n    }\r\n\r\n    /**\r\n     * @dev Permet  un lecteur enregistr de voter pour un candidat pendant la phase de vote.\r\n     */\r\n    function vote(uint256 _candidateId) \r\n        public \r\n        onlyRegisteredVoter \r\n        onlyDuringPhase(ElectionPhase.Voting) \r\n        nonReentrant\r\n    {\r\n        require(!voters[msg.sender].hasVoted, \"You have already voted.\");\r\n        require(_candidateId > 0 && _candidateId < candidateCount, \"Candidate does not exist.\");\r\n\r\n        voters[msg.sender].hasVoted = true;\r\n        candidates[_candidateId].voteCount += 1;\r\n        totalVotes += 1;\r\n        emit VoteCast(_candidateId);\r\n    }\r\n\r\n    /**\r\n     * @dev Rcupre les informations d'un candidat.\r\n     */\r\n    function getCandidate(uint256 _id) public view returns (Candidate memory) {\r\n        require(_id > 0 && _id < candidateCount, \"Candidate does not exist.\");\r\n        return candidates[_id];\r\n    }\r\n\r\n    /**\r\n     * @dev Rcupre les informations d'un lecteur.\r\n     */\r\n    function getVoter(address _voterAddress) public view returns (Voter memory) {\r\n        require(voters[_voterAddress].id != 0, \"Voter not found.\");\r\n        return voters[_voterAddress];\r\n    }\r\n\r\n    /**\r\n     * @dev Rcupre les rsultats de l'lection une fois celle-ci termine.\r\n     */\r\n    function getResults() public view onlyDuringPhase(ElectionPhase.Results) returns (Candidate[] memory) {\r\n        // On ignore l'indice 0 car les IDs commencent  1\r\n        Candidate[] memory results = new Candidate[](candidateCount - 1);\r\n        for (uint256 i = 1; i < candidateCount; i++) {\r\n            results[i - 1] = candidates[i];\r\n        }\r\n        return results;\r\n    }\r\n\r\n    /**\r\n     * @dev Rcupre la liste des adresses des lecteurs enregistrs.\r\n     */\r\n    function getVoterAddresses() public view returns (address[] memory) {\r\n        return voterAddresses;\r\n    }\r\n    \r\n    /**\r\n     * @dev Rinitialise l'lection en supprimant les candidats, lecteurs et en rinitialisant les compteurs.\r\n     *      Cette fonction ne peut tre appele que par l'administrateur et lorsque l'lection est termine (phase Results).\r\n     */\r\n    function resetElection() public onlyAdmin onlyDuringPhase(ElectionPhase.Results) {\r\n        // Rinitialisation des lecteurs\r\n        for (uint256 i = 0; i < voterAddresses.length; i++) {\r\n            delete voters[voterAddresses[i]];\r\n        }\r\n        delete voterAddresses; // Rinitialise le tableau des lecteurs\r\n        \r\n        // Rinitialisation des candidats\r\n        for (uint256 i = 1; i < candidateCount; i++) {\r\n            delete candidates[i];\r\n        }\r\n        \r\n        // Rinitialisation des compteurs et du total des votes\r\n        totalVotes = 0;\r\n        candidateCount = 1;\r\n        voterCount = 1;\r\n        currentPhase = ElectionPhase.NotStarted;\r\n        emit ElectionPhaseChanged(currentPhase);\r\n    }\r\n    \r\n    /**\r\n     * @dev Dclare le gagnant de l'lection lors de la phase des rsultats.\r\n     */\r\n    function declareWinner() internal onlyDuringPhase(ElectionPhase.Results) {\r\n        uint256 highestVotes = 0;\r\n        uint256 winningCandidateId = 0;\r\n        for (uint256 i = 1; i < candidateCount; i++) {\r\n            if (candidates[i].voteCount > highestVotes) {\r\n                highestVotes = candidates[i].voteCount;\r\n                winningCandidateId = i;\r\n            }\r\n        }\r\n        winnerCandidateId = winningCandidateId;\r\n        emit WinnerDeclared(winningCandidateId, candidates[winningCandidateId].firstName, candidates[winningCandidateId].lastName, highestVotes);\r\n    }\r\n}\r\n",
  "sourcePath": "C:\\Users\\Sergio Oracle\\Desktop\\VotingSystem\\contracts\\VotingSystem.sol",
  "compiler": {
    "name": "solc",
    "version": "0.8.0+commit.c7dfd78e.Emscripten.clang"
  },
  "schemaVersion": "3.4.16",
  "updatedAt": "2025-02-17T15:59:20.319Z",
  "networkType": "ethereum",
  "devdoc": {
    "details": "Un systme de vote dcentralis pour grer une lection en plusieurs phases.",
    "kind": "dev",
    "methods": {
      "addCandidate(string,string,address,string,string,uint256)": {
        "details": "Ajoute un candidat pendant la phase d'enregistrement des candidats."
      },
      "addCandidatesBulk(string[],string[],address[],string[],string[],uint256[])": {
        "details": "Ajoute plusieurs candidats simultanment via des tableaux (bulk registration)."
      },
      "addVoter(address,string,string,string,uint256)": {
        "details": "Ajoute un lecteur pendant la phase d'enregistrement des lecteurs."
      },
      "addVotersBulk(address[],string[],string[],string[],uint256[])": {
        "details": "Ajoute plusieurs lecteurs simultanment via des tableaux (bulk registration)."
      },
      "getCandidate(uint256)": {
        "details": "Rcupre les informations d'un candidat."
      },
      "getResults()": {
        "details": "Rcupre les rsultats de l'lection une fois celle-ci termine."
      },
      "getVoter(address)": {
        "details": "Rcupre les informations d'un lecteur."
      },
      "getVoterAddresses()": {
        "details": "Rcupre la liste des adresses des lecteurs enregistrs."
      },
      "nextPhase()": {
        "details": "Passe  la phase suivante de l'lection."
      },
      "resetElection()": {
        "details": "Rinitialise l'lection en supprimant les candidats, lecteurs et en rinitialisant les compteurs.      Cette fonction ne peut tre appele que par l'administrateur et lorsque l'lection est termine (phase Results)."
      },
      "startElection()": {
        "details": "Dmarre l'lection en passant  la phase d'enregistrement des lecteurs."
      },
      "vote(uint256)": {
        "details": "Permet  un lecteur enregistr de voter pour un candidat pendant la phase de vote."
      }
    },
    "title": "VotingSystem",
    "version": 1
  },
  "userdoc": {
    "kind": "user",
    "methods": {},
    "version": 1
  }
}